{
  "_format": "hh-sol-artifact-1",
  "contractName": "ToDoList",
  "sourceName": "contracts/ToDoList.sol",
  "abi": [
    {
      "inputs": [],
      "stateMutability": "nonpayable",
      "type": "constructor"
    },
    {
      "anonymous": false,
      "inputs": [
        {
          "indexed": true,
          "internalType": "address",
          "name": "account",
          "type": "address"
        },
        {
          "indexed": true,
          "internalType": "uint256",
          "name": "userId",
          "type": "uint256"
        },
        {
          "indexed": false,
          "internalType": "string",
          "name": "message",
          "type": "string"
        },
        {
          "indexed": false,
          "internalType": "bool",
          "name": "completed",
          "type": "bool"
        }
      ],
      "name": "ToDoEvent",
      "type": "event"
    },
    {
      "inputs": [],
      "name": "_idUser",
      "outputs": [
        {
          "internalType": "uint256",
          "name": "",
          "type": "uint256"
        }
      ],
      "stateMutability": "view",
      "type": "function"
    },
    {
      "inputs": [
        {
          "internalType": "string",
          "name": "_message",
          "type": "string"
        }
      ],
      "name": "createList",
      "outputs": [],
      "stateMutability": "nonpayable",
      "type": "function"
    },
    {
      "inputs": [
        {
          "internalType": "uint256",
          "name": "",
          "type": "uint256"
        }
      ],
      "name": "creators",
      "outputs": [
        {
          "internalType": "address",
          "name": "",
          "type": "address"
        }
      ],
      "stateMutability": "view",
      "type": "function"
    },
    {
      "inputs": [],
      "name": "getAddress",
      "outputs": [
        {
          "internalType": "address[]",
          "name": "",
          "type": "address[]"
        }
      ],
      "stateMutability": "view",
      "type": "function"
    },
    {
      "inputs": [
        {
          "internalType": "address",
          "name": "_address",
          "type": "address"
        }
      ],
      "name": "getCreatorData",
      "outputs": [
        {
          "internalType": "address",
          "name": "",
          "type": "address"
        },
        {
          "internalType": "uint256",
          "name": "",
          "type": "uint256"
        },
        {
          "internalType": "string",
          "name": "",
          "type": "string"
        },
        {
          "internalType": "bool",
          "name": "",
          "type": "bool"
        }
      ],
      "stateMutability": "view",
      "type": "function"
    },
    {
      "inputs": [],
      "name": "getMessages",
      "outputs": [
        {
          "internalType": "string[]",
          "name": "",
          "type": "string[]"
        }
      ],
      "stateMutability": "view",
      "type": "function"
    },
    {
      "inputs": [
        {
          "internalType": "uint256",
          "name": "",
          "type": "uint256"
        }
      ],
      "name": "messageIds",
      "outputs": [
        {
          "internalType": "uint256",
          "name": "",
          "type": "uint256"
        }
      ],
      "stateMutability": "view",
      "type": "function"
    },
    {
      "inputs": [
        {
          "internalType": "uint256",
          "name": "",
          "type": "uint256"
        }
      ],
      "name": "messages",
      "outputs": [
        {
          "internalType": "string",
          "name": "",
          "type": "string"
        }
      ],
      "stateMutability": "view",
      "type": "function"
    },
    {
      "inputs": [],
      "name": "ownerOfContract",
      "outputs": [
        {
          "internalType": "address",
          "name": "",
          "type": "address"
        }
      ],
      "stateMutability": "view",
      "type": "function"
    },
    {
      "inputs": [
        {
          "internalType": "address",
          "name": "",
          "type": "address"
        }
      ],
      "name": "toDoListApps",
      "outputs": [
        {
          "internalType": "address",
          "name": "account",
          "type": "address"
        },
        {
          "internalType": "uint256",
          "name": "userId",
          "type": "uint256"
        },
        {
          "internalType": "string",
          "name": "message",
          "type": "string"
        },
        {
          "internalType": "bool",
          "name": "completed",
          "type": "bool"
        }
      ],
      "stateMutability": "view",
      "type": "function"
    },
    {
      "inputs": [
        {
          "internalType": "address",
          "name": "_creator",
          "type": "address"
        }
      ],
      "name": "toggle",
      "outputs": [],
      "stateMutability": "nonpayable",
      "type": "function"
    }
  ],
  "bytecode": "0x608060405234801561001057600080fd5b5033600160006101000a81548173ffffffffffffffffffffffffffffffffffffffff021916908373ffffffffffffffffffffffffffffffffffffffff160217905550611391806100616000396000f3fe608060405234801561001057600080fd5b50600436106100a95760003560e01c80635ff6cbf3116100715780635ff6cbf31461016957806374310d081461018757806394432cc5146101ba5780639d17b9c5146101d8578063b8dcc68f14610208578063cd53d08e14610224576100a9565b80630d64e697146100ae5780630d80fefd146100e157806338cc483114610111578063468229ae1461012f578063588f9acc1461014d575b600080fd5b6100c860048036038101906100c39190610a5d565b610254565b6040516100d89493929190610b5d565b60405180910390f35b6100fb60048036038101906100f69190610bd5565b6103d9565b6040516101089190610c02565b60405180910390f35b610119610485565b6040516101269190610ce2565b60405180910390f35b610137610513565b6040516101449190610d04565b60405180910390f35b61016760048036038101906101629190610a5d565b610539565b005b6101716105ae565b60405161017e9190610e2b565b60405180910390f35b6101a1600480360381019061019c9190610a5d565b610687565b6040516101b19493929190610b5d565b60405180910390f35b6101c261076c565b6040516101cf9190610e4d565b60405180910390f35b6101f260048036038101906101ed9190610bd5565b610772565b6040516101ff9190610e4d565b60405180910390f35b610222600480360381019061021d9190610ecd565b610796565b005b61023e60048036038101906102399190610bd5565b61099d565b60405161024b9190610d04565b60405180910390f35b6000806060600080600560008773ffffffffffffffffffffffffffffffffffffffff1673ffffffffffffffffffffffffffffffffffffffff1681526020019081526020016000206040518060800160405290816000820160009054906101000a900473ffffffffffffffffffffffffffffffffffffffff1673ffffffffffffffffffffffffffffffffffffffff1673ffffffffffffffffffffffffffffffffffffffff1681526020016001820154815260200160028201805461031690610f49565b80601f016020809104026020016040519081016040528092919081815260200182805461034290610f49565b801561038f5780601f106103645761010080835404028352916020019161038f565b820191906000526020600020905b81548152906001019060200180831161037257829003601f168201915b505050505081526020016003820160009054906101000a900460ff161515151581525050905080600001518160200151826040015183606001519450945094509450509193509193565b600381815481106103e957600080fd5b90600052602060002001600091509050805461040490610f49565b80601f016020809104026020016040519081016040528092919081815260200182805461043090610f49565b801561047d5780601f106104525761010080835404028352916020019161047d565b820191906000526020600020905b81548152906001019060200180831161046057829003601f168201915b505050505081565b6060600280548060200260200160405190810160405280929190818152602001828054801561050957602002820191906000526020600020905b8160009054906101000a900473ffffffffffffffffffffffffffffffffffffffff1673ffffffffffffffffffffffffffffffffffffffff16815260200190600101908083116104bf575b5050505050905090565b600160009054906101000a900473ffffffffffffffffffffffffffffffffffffffff1681565b6000600560008373ffffffffffffffffffffffffffffffffffffffff1673ffffffffffffffffffffffffffffffffffffffff16815260200190815260200160002090508060030160009054906101000a900460ff16158160030160006101000a81548160ff0219169083151502179055505050565b60606003805480602002602001604051908101604052809291908181526020016000905b8282101561067e5783829060005260206000200180546105f190610f49565b80601f016020809104026020016040519081016040528092919081815260200182805461061d90610f49565b801561066a5780601f1061063f5761010080835404028352916020019161066a565b820191906000526020600020905b81548152906001019060200180831161064d57829003601f168201915b5050505050815260200190600101906105d2565b50505050905090565b60056020528060005260406000206000915090508060000160009054906101000a900473ffffffffffffffffffffffffffffffffffffffff16908060010154908060020180546106d690610f49565b80601f016020809104026020016040519081016040528092919081815260200182805461070290610f49565b801561074f5780601f106107245761010080835404028352916020019161074f565b820191906000526020600020905b81548152906001019060200180831161073257829003601f168201915b5050505050908060030160009054906101000a900460ff16905084565b60005481565b6004818154811061078257600080fd5b906000526020600020016000915090505481565b61079e6109dc565b6000805490506000600560003373ffffffffffffffffffffffffffffffffffffffff1673ffffffffffffffffffffffffffffffffffffffff1681526020019081526020016000209050338160000160006101000a81548173ffffffffffffffffffffffffffffffffffffffff021916908373ffffffffffffffffffffffffffffffffffffffff160217905550838382600201918261083d929190611160565b5060008160030160006101000a81548160ff0219169083151502179055508181600101819055506002339080600181540180825580915050600190039060005260206000200160009091909190916101000a81548173ffffffffffffffffffffffffffffffffffffffff021916908373ffffffffffffffffffffffffffffffffffffffff1602179055506003848490918060018154018082558091505060019003906000526020600020016000909192909192909192909192509182610904929190611160565b50600482908060018154018082558091505060019003906000526020600020016000909190919091505580600101543373ffffffffffffffffffffffffffffffffffffffff167f97cb199a6fede85e8843b14a3b82273a76130b0e671f8803ce27aa90d52ee114836002018460030160009054906101000a900460ff1660405161098f9291906112b4565b60405180910390a350505050565b600281815481106109ad57600080fd5b906000526020600020016000915054906101000a900473ffffffffffffffffffffffffffffffffffffffff1681565b6000808154809291906109ee90611313565b9190505550565b600080fd5b600080fd5b600073ffffffffffffffffffffffffffffffffffffffff82169050919050565b6000610a2a826109ff565b9050919050565b610a3a81610a1f565b8114610a4557600080fd5b50565b600081359050610a5781610a31565b92915050565b600060208284031215610a7357610a726109f5565b5b6000610a8184828501610a48565b91505092915050565b610a9381610a1f565b82525050565b6000819050919050565b610aac81610a99565b82525050565b600081519050919050565b600082825260208201905092915050565b60005b83811015610aec578082015181840152602081019050610ad1565b60008484015250505050565b6000601f19601f8301169050919050565b6000610b1482610ab2565b610b1e8185610abd565b9350610b2e818560208601610ace565b610b3781610af8565b840191505092915050565b60008115159050919050565b610b5781610b42565b82525050565b6000608082019050610b726000830187610a8a565b610b7f6020830186610aa3565b8181036040830152610b918185610b09565b9050610ba06060830184610b4e565b95945050505050565b610bb281610a99565b8114610bbd57600080fd5b50565b600081359050610bcf81610ba9565b92915050565b600060208284031215610beb57610bea6109f5565b5b6000610bf984828501610bc0565b91505092915050565b60006020820190508181036000830152610c1c8184610b09565b905092915050565b600081519050919050565b600082825260208201905092915050565b6000819050602082019050919050565b610c5981610a1f565b82525050565b6000610c6b8383610c50565b60208301905092915050565b6000602082019050919050565b6000610c8f82610c24565b610c998185610c2f565b9350610ca483610c40565b8060005b83811015610cd5578151610cbc8882610c5f565b9750610cc783610c77565b925050600181019050610ca8565b5085935050505092915050565b60006020820190508181036000830152610cfc8184610c84565b905092915050565b6000602082019050610d196000830184610a8a565b92915050565b600081519050919050565b600082825260208201905092915050565b6000819050602082019050919050565b600082825260208201905092915050565b6000610d6782610ab2565b610d718185610d4b565b9350610d81818560208601610ace565b610d8a81610af8565b840191505092915050565b6000610da18383610d5c565b905092915050565b6000602082019050919050565b6000610dc182610d1f565b610dcb8185610d2a565b935083602082028501610ddd85610d3b565b8060005b85811015610e195784840389528151610dfa8582610d95565b9450610e0583610da9565b925060208a01995050600181019050610de1565b50829750879550505050505092915050565b60006020820190508181036000830152610e458184610db6565b905092915050565b6000602082019050610e626000830184610aa3565b92915050565b600080fd5b600080fd5b600080fd5b60008083601f840112610e8d57610e8c610e68565b5b8235905067ffffffffffffffff811115610eaa57610ea9610e6d565b5b602083019150836001820283011115610ec657610ec5610e72565b5b9250929050565b60008060208385031215610ee457610ee36109f5565b5b600083013567ffffffffffffffff811115610f0257610f016109fa565b5b610f0e85828601610e77565b92509250509250929050565b7f4e487b7100000000000000000000000000000000000000000000000000000000600052602260045260246000fd5b60006002820490506001821680610f6157607f821691505b602082108103610f7457610f73610f1a565b5b50919050565b600082905092915050565b7f4e487b7100000000000000000000000000000000000000000000000000000000600052604160045260246000fd5b60008190508160005260206000209050919050565b60006020601f8301049050919050565b600082821b905092915050565b6000600883026110167fffffffffffffffffffffffffffffffffffffffffffffffffffffffffffffffff82610fd9565b6110208683610fd9565b95508019841693508086168417925050509392505050565b6000819050919050565b600061105d61105861105384610a99565b611038565b610a99565b9050919050565b6000819050919050565b61107783611042565b61108b61108382611064565b848454610fe6565b825550505050565b600090565b6110a0611093565b6110ab81848461106e565b505050565b5b818110156110cf576110c4600082611098565b6001810190506110b1565b5050565b601f821115611114576110e581610fb4565b6110ee84610fc9565b810160208510156110fd578190505b61111161110985610fc9565b8301826110b0565b50505b505050565b600082821c905092915050565b600061113760001984600802611119565b1980831691505092915050565b60006111508383611126565b9150826002028217905092915050565b61116a8383610f7a565b67ffffffffffffffff81111561118357611182610f85565b5b61118d8254610f49565b6111988282856110d3565b6000601f8311600181146111c757600084156111b5578287013590505b6111bf8582611144565b865550611227565b601f1984166111d586610fb4565b60005b828110156111fd578489013582556001820191506020850194506020810190506111d8565b8683101561121a5784890135611216601f891682611126565b8355505b6001600288020188555050505b50505050505050565b6000815461123d81610f49565b6112478186610abd565b945060018216600081146112625760018114611278576112ab565b60ff1983168652811515602002860193506112ab565b61128185610fb4565b60005b838110156112a357815481890152600182019150602081019050611284565b808801955050505b50505092915050565b600060408201905081810360008301526112ce8185611230565b90506112dd6020830184610b4e565b9392505050565b7f4e487b7100000000000000000000000000000000000000000000000000000000600052601160045260246000fd5b600061131e82610a99565b91507fffffffffffffffffffffffffffffffffffffffffffffffffffffffffffffffff82036113505761134f6112e4565b5b60018201905091905056fea26469706673582212208f4bacb9bfd71a2a68832abdd564a76d4dc735dc1a1ce858da209d45031216ab64736f6c63430008110033",
  "linkReferences": {},
  "deployedLinkReferences": {}
}